:0B0459003F065B4F666D7D077F6F77ED
:10041B000108000109000210002F010A32010B2F05
:0C042B00010C32010D00010E00010F0059
:10043800E4F51212044912000E1201A312023D80C3
:01044800F5BE
:10000E002092647F0A7E001203FB20925A3092FDEA
:10001E00050FE50F64017024D2A1D2A0C2A2D2A412
:10002E00D2A3C2A5D2B7D2B6D291D290F509F50815
:10003E00F50DF50EC28CF510F511F50AE50F6402FB
:10004E007025D28CF50FE51145107010F510751155
:10005E002F750A32850A0C85110B800BAF11EF2418
:10006E0003F50AF50C8F0B2093307F0A7E001203E6
:10007E00FB2093263093FDE50FB4011E0511E5110B
:10008E007002051064614510700AF51075112F7518
:10009E000A328006E5112403F50A2094337F0A7E86
:1000AE00001203FB2094293094FDE50FB40121E5E5
:1000BE0011151170021510C3E51064809480500A5A
:1000CE0075100075112F750A3222E5112403F50AF9
:0100DE0022FF
:10044900758901758C4C758ACFD2AFD2A9D28C220D
:03000B000200DF11
:1000DF00C0E0C0D0758C4C758ACF05080509E508BE
:1000EF006414705DF508E511151170021510150AED
:1000FF00E51145107028050DE50D24FE600F146005
:10010F0014240270197510007511038011751000F9
:10011F0075111E8009751000850B11750D00E50A0C
:10012F00701F050EE50E24FE600C14600E24027085
:10013F0010750A1B800B750A038006850C0A750E55
:10014F0000E509640B7048F509E50DB40124C3E51A
:10015F00119401E510648094804017D3E511940346
:10016F00E51064809480500AD2A0D2A1B2A2D2909E
:10017F00C291E50EB40218E50AC394014011E50AD5
:10018F00D39403500AD2A3D2A4B2A5D2B6C2B7D089
:04019F00D0D0E032AA
:0F03EC00F583E493F580C2A67580FF7F037E0042
:1003FB00D3EF9400EE6480948040147D6E7C00ED0E
:0F040B001D70011CED4C70F7EF1F70E41E80E1B7
:01041A0022BF
:1001A300AE10AF117C007D0A1203618E138F14AE63
:1001B30010AF117C007D0A1203618C158D16E50AC0
:1001C30075F00A84751700F518E50A75F00A84AB13
:1001D300F07A00D2A77580BEC2A7D2A6745925149F
:1001E300F582740435131203ECD2A775807DC2A780
:1001F300D2A674592516F582740435151203ECD270
:10020300A77580EBC2A7D2A674592518F58274048A
:1002130035171203ECD2A77580D7C2A7D2A67E00EA
:10022300AF0374592FF582EE3404F583E493F5801C
:0A023300C2A67580FF7F030203FBE3
:10023D00E50F60030202D4E50D6003B40324C3E5AA
:10024D00119401E510648094804017D3E511950B4E
:10025D007480F8651098500AC2A0D2A2D2A1D29093
:10026D00C291E50DB40224C3E5119401E51064803B
:10027D0094804017D3E511941EE51064809480504E
:10028D000AD2A0D2A2C2A1D291C290E50E6003B44F
:10029D000318E50AC394014011E50AD3950C500AE1
:1002AD00D2A3C2A4D2A5C2B6D2B7E50EB40118E549
:1002BD000AC394014011E50AD3941B500AC2A3D27C
:0802CD00A4D2A5D2B6C2B722EB
:030000000202D524
:0C02D500787FE4F6D8FD75811802031C48
:10036100C2D5EC30E709B2D5E4C39DFDE49CFCEEB7
:1003710030E715B2D5E4C39FFFE49EFE120397C395
:10038100E49DFDE49CFC800312039730D507C3E490
:060391009FFFE49EFE2226
:1002E100020438E493A3F8E493A34003F68001F2F7
:1002F10008DFF48029E493A3F85407240CC8C3331E
:10030100C4540F4420C8834004F456800146F6DFEC
:10031100E4800B010204081020408090041BE47E5D
:10032100019360BCA3FF543F30E509541FFEE493E1
:10033100A360010ECF54C025E060A840B8E493A3A8
:10034100FAE493A3F8E493A3C8C582C8CAC583CAD3
:10035100F0A3C8C582C8CAC583CADFE9DEE780BE8B
:0104370000C4
:10039700BC000BBE0029EF8DF084FFADF022E4CC4A
:1003A700F875F008EF2FFFEE33FEEC33FCEE9DEC13
:1003B700984005FCEE9DFE0FD5F0E9E4CEFD22ED59
:1003C700F8F5F0EE8420D21CFEADF075F008EF2FA3
:1003D700FFED33FD4007985006D5F0F222C398FD94
:0503E7000FD5F0EA2231
:00000001FF
